:020000040800F2
:1000000000000220D9290008B5270008C3270008EE
:10001000C9270008CF270008D527000800000000E6
:10002000000000000000000000000000DB270008C6
:10003000E927000800000000F7270008052800084D
:10004000292A0008292A0008292A0008292A000844
:10005000292A0008292A0008292A0008292A000834
:10006000292A0008292A0008292A0008292A000824
:10007000292A0008292A0008292A0008292A000814
:10008000292A0008292A000815280008292A00081A
:10009000292A0008292A0008292A0008292A0008F4
:1000A000292A0008292A0008292A0008292A0008E4
:1000B000292A0008292A0008292A0008292A0008D4
:1000C000292A0008292A0008292A0008292A0008C4
:1000D000292A0008292A0008292A0008292A0008B4
:1000E000292A0008292A0008292A0008292A0008A4
:1000F000292A0008292A0008292A0008292A000894
:10010000292A0008292A0008292A0008292A000883
:10011000292A0008292A0008292A0008292A000873
:10012000292A0008292A0008292A0008292A000863
:10013000292A0008292A0008292A0008292A000853
:10014000292A0008292A0008292A0008292A000843
:10015000292A0008292A0008292A0008292A000833
:10016000292A0008292A0008292A0008292A000823
:10017000292A0008292A0008292A0008000000006E
:08018000292A0008292A0008C1
:1001880010B5054C237833B9044B13B10448AFF3C9
:1001980000800123237010BD0C0000200000000027
:1001A800742A000808B5034B1BB103490348AFF391
:1001B800008008BD0000000010000020742A00081C
:1001C80053B94AB9002908BF00281CBF4FF0FF31B6
:1001D8004FF0FF3000F07AB9ADF1080C6DE904CEAC
:1001E80000F006F8DDF804E0DDE9022304B070470A
:1001F8002DE9F0478C460D460446089E002B51D148
:100208008A4217466DD9B2FA82FEBEF1000F0BD0B2
:10021800CEF1200C01FA0EF520FA0CFC02FA0EF7CA
:100228004CEA050C00FA0EF44FEA174A250CBCFB01
:10023800FAF81FFA87F90AFB18CC45EA0C4508FBBF
:1002480009F3AB420AD9ED1908F1FF3280F0238196
:10025800AB4240F22081A8F102083D44ED1AA4B255
:10026800B5FBFAF00AFB105544EA054400FB09F90E
:10027800A14509D9E41900F1FF3380F00A81A145AD
:1002880040F2078102383C44A4EB090440EA0840E4
:100298000021002E61D024FA0EF40023346073602C
:1002A800BDE8F0878B4207D9002E54D0002186E89C
:1002B80021000846BDE8F087B3FA83F1002940F031
:1002C8008E80AB4202D3824200F2FA80841A65EB38
:1002D80003050120AC46002E3FD086E81010BDE88B
:1002E800F08712B90127B7FBF2F7B7FA87FEBEF11C
:1002F800000F34D1EB1B3A0C1FFA87FC0121B3FB2A
:10030800F2F8250C02FB183345EA03450CFB08F309
:10031800AB4207D9ED1908F1FF3002D2AB4200F227
:10032800D1808046ED1AA3B2B5FBF2F002FB10555E
:1003380043EA05440CFB00FCA44507D9E41900F185
:10034800FF3302D2A44500F2B8801846A4EB0C048F
:1003580040EA08409DE731463046BDE8F087CEF1D7
:10036800200405FA0EF307FA0EF720FA04F83A0CFF
:1003780025FA04F448EA0308B4FBF2F14FEA1845F9
:1003880002FB11441FFA87FC45EA044501FB0CF304
:10039800AB4200FA0EF409D9ED1901F1FF3080F0F3
:1003A8008A80AB4240F2878002393D44EB1A1FFA3B
:1003B80088F5B3FBF2F002FB103345EA034500FB76
:1003C8000CF3AB4207D9ED1900F1FF386FD2AB42FD
:1003D8006DD902383D44EB1A40EA01418FE7C1F17B
:1003E800200722FA07F88B4005FA01F448EA0303CC
:1003F80020FA07FE4FEA134CFD404EEA040EB5FB07
:10040800FCF94FEA1E440CFB19551FFA83F844EA1D
:10041800054509FB08F4AC4202FA01F200FA01FAB8
:1004280008D9ED1809F1FF3043D2AC4241D9A9F1FE
:1004380002091D442D1B1FFA8EFEB5FBFCF00CFBB8
:1004480010554EEA054400FB08F8A04507D9E41802
:1004580000F1FF3529D2A04527D902381C4440EACB
:100468000940A4EB0804A0FB02894C45C6464D464A
:1004780015D312D056B1BAEB0E0364EB050404FA97
:1004880007F7CB401F43CC40376074600021BDE8BC
:10049800F0871846F8E69046E0E6C245EAD2B8EB9F
:1004A800020E69EB03050138E4E72846D7E7404622
:1004B80091E78146BEE7014678E702383C4445E7C4
:1004C800084608E7A8F102083D442BE7704700BF3B
:1004D80080B500AF0E4A0E4B1B6843F400731360DF
:1004E8000B4A0B4B1B6843F480631360084A084BA4
:1004F8001B6843F480731360032000F0ADFD0020F7
:1005080000F008F802F07AF80023184680BD00BF12
:10051800003C024080B582B000AF7860124B1A6888
:10052800124B1B7819464FF47A73B3FBF1F3B2FB05
:10053800F3F3184600F0C5FD0346002B01D0012354
:100548000EE07B680F2B0AD8002279684FF0FF3045
:1005580000F08DFD064A7B681360002300E001234C
:1005680018460837BD4680BD08000020040000205A
:100578000000002080B400AF064B1B781A46064BDB
:100588001B681344044A136000BFBD465DF8047B32
:10059800704700BF040000202800002080B400AF8E
:1005A800034B1B681846BD465DF8047B704700BFC7
:1005B8002800002080B584B000AF78600023FB736A
:1005C8007B68002B01D1012333E07B681B6C002B77
:1005D80009D17B6800225A647B68002283F83C209A
:1005E800786802F05DF87B681B6C03F01003002B41
:1005F80018D17B681B6C23F4885323F0020343F063
:1006080002027B681A64786800F058FB7B68002255
:100618005A647B681B6C23F0030343F001027B6878
:100628001A6401E00123FB737B68002283F83C20F5
:10063800FB7B18461037BD4680BD000080B485B0EE
:1006480000AF78600023BB607B6893F83C30012BD7
:1006580001D1022393E07B68012283F83C207B6868
:100668001B689B6803F00103012B18D07B681B688B
:100678007A681268926842F001029A60434B1B68DC
:10068800434AA2FB03239A0C13465B001344BB6046
:1006980002E0BB68013BBB60BB68002BF9D17B68FB
:1006A8001B689B6803F00103002B67D07B681B6CF9
:1006B80023F4E06323F0010343F480727B681A6437
:1006C8007B681B685B6803F48063002B07D07B683A
:1006D8001B6C23F4405343F480527B681A647B6894
:1006E8001B6C03F48053002B06D07B685B6C23F0F3
:1006F80006027B685A6402E07B6800225A647B68C1
:10070800002283F83C20234BFB607B681B686FF05A
:1007180022021A607B681A687B681B685B6843F072
:10072800806343F020035360FB685B6803F01F039A
:10073800002B0FD17B681B689B6803F04053002B8C
:100748001CD17B681B687A681268926842F0804204
:100758009A6013E07B681B680F4A93420ED17B684E
:100768001B689B6803F04053002B07D17B681B680C
:100778007A681268926842F080429A6000231846AC
:100788001437BD465DF8047B704700BF08000020A1
:1007980083DE1B43002301400020014080B584B064
:1007A80000AF78600023FB600023BB607B681B6898
:1007B8001B6803F00203022B0CBF01230023DBB2EA
:1007C800FB607B681B685B6803F02003202B0CBF71
:1007D80001230023DBB2BB60FB68002B49D0BB6858
:1007E800002B46D07B681B6C03F01003002B05D14F
:1007F8007B681B6C43F400727B681A647B681B6817
:100808009B6803F04053002B2BD17B689B69002B1E
:1008180027D17B681B68DB6A03F47003002B06D0C2
:100828007B681B689B6803F48063002B19D17B6885
:100838001B687A681268526822F020025A607B6846
:100848001B6C23F480727B681A647B681B6C03F44E
:100858008053002B05D17B681B6C43F001027B6839
:100868001A64786800F0E8F87B681B686FF0120279
:100878001A607B681B681B6803F00403042B0CBF19
:1008880001230023DBB2FB607B681B685B6803F015
:100898008003802B0CBF01230023DBB2BB60FB6805
:1008A800002B57D0BB68002B54D07B681B6C03F01F
:1008B8001003002B05D17B681B6C43F400527B6846
:1008C8001A647B681B689B6803F44013002B39D1BA
:1008D8007B681B689B6B03F44013002B06D07B6876
:1008E8001B689B6803F48063002B2BD17B681B6813
:1008F8005B6803F48063002B24D17B681B689B68CA
:1009080003F04053002B1DD17B689B69002B19D144
:100918007B681B687A681268526822F080025A6005
:100928007B681B6C23F480527B681A647B681B6CA1
:1009380003F48073002B05D17B681B6C43F0010224
:100948007B681A64786800F0B3FA7B681B686FF0FC
:100958000C021A607B681B681B6803F00103012BFB
:100968000CBF01230023DBB2FB607B681B685B685C
:1009780003F04003402B0CBF01230023DBB2BB6014
:10098800FB68002B17D0BB68002B14D07B681B6852
:100998001B6803F00103012B0DD17B681B6C43F42A
:1009A80080327B681A64786800F050F87B681B68AE
:1009B8006FF001021A607B681B681B6803F0200354
:1009C800202B0CBF01230023DBB2FB607B681B6874
:1009D8005B6803F08063B3F1806F0CBF01230023D1
:1009E800DBB2BB60FB68002B15D0BB68002B12D0B4
:1009F8007B685B6C43F002027B685A647B681B6807
:100A08006FF020021A60786800F02AF87B681B688B
:100A18006FF020021A6000BF1037BD4680BD80B459
:100A280083B000AF78607B681B68DB6C18460C37B6
:100A3800BD465DF8047B704780B483B000AF786032
:100A480000BF0C37BD465DF8047B704780B483B0A7
:100A580000AF786000BF0C37BD465DF8047B704777
:100A680080B483B000AF786000BF0C37BD465DF836
:100A7800047B704790B484B000AF7860396000237D
:100A8800BB607B6893F83C30012B01D1022307E15E
:100A98007B68012283F83C203B681B68092B26D918
:100AA8007B681A687B681B68D9683B681B689BB2BF
:100AB800184603465B0003441E3B072000FA03F375
:100AC800DB430B40D3607B681A687B681B68D96876
:100AD8003B6898683B681B689BB21C4623465B00D2
:100AE80023441E3B00FA03F30B43D36023E07B68E7
:100AF8001A687B681B6819693B681B689BB21846B3
:100B080003465B000344072000FA03F3DB430B4072
:100B180013617B681A687B681B6819693B68986869
:100B28003B681B689BB21C4623465B00234400FAC3
:100B380003F30B4313613B685B68062B24D87B687F
:100B480019687B681B68586B3B685A6813469B009A
:100B58001344053B1F2202FA03F3DB4303404B63B4
:100B68007B6819687B681B68586B3B681B689BB27D
:100B78001C463B685A6813469B001344053B04FA1D
:100B880003F303434B634CE03B685B680C2B24D8AE
:100B98007B6819687B681B68186B3B685A68134642
:100BA8009B001344233B1F2202FA03F3DB43034059
:100BB8000B637B6819687B681B68186B3B681B684C
:100BC8009BB21C463B685A6813469B001344233B60
:100BD80004FA03F303430B6323E07B6819687B681B
:100BE8001B68D86A3B685A6813469B001344413B0C
:100BF8001F2202FA03F3DB430340CB627B681968C8
:100C08007B681B68D86A3B681B689BB21C463B68BC
:100C18005A6813469B001344413B04FA03F3034309
:100C2800CB62224BFB607B681B68214A934209D147
:100C38003B681B68122B05D1FB685B6843F4800294
:100C4800FB685A607B681B68194A934223D13B684A
:100C58001B68102B03D03B681B68112B1BD1FB684A
:100C68005B6843F40002FB685A603B681B68102B02
:100C780011D1104B1B68104AA2FB03239A0C134690
:100C88009B0013445B00BB6002E0BB68013BBB6098
:100C9800BB68002BF9D17B68002283F83C20002335
:100CA80018461037BD4690BC704700BF002301406E
:100CB800002001400800002083DE1B4380B485B07B
:100CC80000AF7860784BFB60FB685B6823F44032C8
:100CD800FB685A60FB685A687B685B681A43FB6864
:100CE8005A607B681B687A681268526822F48072BE
:100CF8005A607B681B687A68126851687A6812695A
:100D080012020A435A607B681B687A681268526844
:100D180022F040725A607B681B687A6812685168D2
:100D28007A6892680A435A607B681B687A68126816
:100D3800926822F400629A607B681B687A6812687D
:100D480091687A68D2680A439A607B689B6A574AB6
:100D5800934222D07B681B687A681268926822F0F6
:100D680070629A607B681B687A68126891687A6812
:100D7800926A0A439A607B681B687A68126892686C
:100D880022F040529A607B681B687A681268916802
:100D98007A68D26A0A439A600FE07B681B687A68AF
:100DA8001268926822F070629A607B681B687A68A1
:100DB8001268926822F040529A607B681B687A68D1
:100DC8001268926822F002029A607B681B687A684F
:100DD800126891687A68926952000A439A607B683F
:100DE8001B6A002B1BD07B681B687A6812685268E4
:100DF80042F400625A607B681B687A68126852681D
:100E080022F460425A607B681B687A6812685168ED
:100E18007A68526A013A52030A435A6007E07B68CB
:100E28001B687A681268526822F400625A607B680C
:100E38001B687A681268D26A22F47002DA627B68E8
:100E48001B687A681268D16A7A68D269013A120511
:100E58000A43DA627B681B687A681268926822F42F
:100E680000729A607B681B687A68126891687A6871
:100E7800126B52020A439A607B681B687A68126890
:100E8800926822F480629A607B681B687A681268AC
:100E980091687A68526992020A439A6000BF1437CF
:100EA800BD465DF8047B7047002301400100000F38
:100EB80080B483B000AF786000BF0C37BD465DF8E2
:100EC800047B704780B485B000AF78607B6803F01E
:100ED8000703FB600C4BDB68BB60BA684FF6FF0387
:100EE8001340BB60FB681A02BB68134343F0BF633F
:100EF80043F40033BB60044ABB68D36000BF1437B7
:100F0800BD465DF8047B704700ED00E080B400AF9B
:100F1800044BDB681B0A03F007031846BD465DF85F
:100F2800047B704700ED00E080B483B000AF034657
:100F3800FB71094997F907305B09FA7902F01F023A
:100F4800012000FA02F241F8232000BF0C37BD4609
:100F58005DF8047B704700BF00E100E080B483B017
:100F680000AF03463960FB7197F90730002B0BDAA5
:100F78000D49FB7903F00F03043B3A68D2B2120122
:100F8800D2B20B441A7609E0084997F907303A6853
:100F9800D2B21201D2B20B4483F8002300BF0C373F
:100FA800BD465DF8047B704700ED00E000E100E01D
:100FB80080B489B000AFF860B9607A60FB6803F06C
:100FC8000703FB61FB69C3F10703042B28BF042354
:100FD800BB61FB690433062B02D9FB69033B00E0C4
:100FE80000237B610122BB6902FA03F35A1EBB6826
:100FF8001A407B699A4001217B6901FA03F3591E63
:101008007B680B40134318462437BD465DF8047BC4
:101018007047000080B582B000AF78607B68013B04
:10102800B3F1807F01D301230FE00A4A7B68013BBB
:1010380053600F214FF0FF30FFF790FF054B002260
:101048009A60044B07221A60002318460837BD46E9
:1010580080BD00BF10E000E080B582B000AF7860CE
:101068007868FFF72FFF00BF0837BD4680BD80B501
:1010780086B000AF0346B9607A60FB7300237B61DA
:10108800FFF744FF78617A68B9687869FFF790FFDD
:10109800024697F90F3011461846FFF75FFF00BF69
:1010A8001837BD4680BD80B582B000AF0346FB71DE
:1010B80097F907301846FFF737FF00BF0837BD46D6
:1010C80080BD80B582B000AF78607868FFF7A2FF76
:1010D800034618460837BD4680BD000080B483B07B
:1010E80000AF78607B68042B06D1094A084B1B685F
:1010F80043F00403136005E0054A054B1B6823F021
:101108000403136000BF0C37BD465DF8047B7047CD
:1011180010E000E080B500AF00F002F800BF80BD2D
:1011280080B400AF00BFBD465DF8047B704780B552
:1011380082B000AF78607B68002B01D1012314E0F6
:101148007B681B79DBB2002B05D17B6800225A71C2
:10115800786801F0DBFA7B6802221A717B6800224A
:101168001A617B6801221A71002318460837BD46A8
:1011780080BD80B487B000AFF860B9607A600023A2
:101188007B6100233B61FB685B79012B01D1022362
:1011980036E0FB6801225A71FB6802221A71FB686B
:1011A8001B681B687B6140F6FE727B6802FA03F3DA
:1011B800DB437A6913407B61BB681A68BB685B686C
:1011C80013433B613A697B6802FA03F37A69134374
:1011D8007B61FB681B687A691A60FB681B68FA68A0
:1011E80012681168C0207A6800FA02F2D2430A40F5
:1011F8001A60FB6801221A71FB6800225A710023E9
:1012080018461C37BD465DF8047B704780B487B02C
:1012180000AFF860B9607A603B6000237B61FB68CF
:101228001B687B61BB68002B05D17A697B68134416
:1012380008337B6104E07A697B68134414337B616B
:101248007B691A463B681360002318461C37BD4665
:101258005DF8047B7047000080B489B000AF786007
:10126800396000237B6100233B610023BB610023BD
:10127800FB616BE10122FB6902FA03F37B613B68C6
:101288001A687B6913403B613A697B699A4240F06E
:101298005A813B685B68022B03D03B685B68122B62
:1012A80023D1FB69DA087B68083253F82230BB6126
:1012B800FB6903F007039B000F2202FA03F3DB43E9
:1012C800BA691340BB613B681A69FB6903F00703FD
:1012D8009B0002FA03F3BA691343BB61FB69DA089E
:1012E8007B680832B96943F822107B681B68BB61C8
:1012F800FB695B00032202FA03F3DB43BA6913407C
:10130800BB613B685B6803F00302FB695B0002FAA0
:1013180003F3BA691343BB617B68BA691A603B6817
:101328005B68012B0BD03B685B68022B07D03B68DE
:101338005B68112B03D03B685B68122B30D17B684C
:101348009B68BB61FB695B00032202FA03F3DB4382
:10135800BA691340BB613B68DA68FB695B0002FA53
:1013680003F3BA691343BB617B68BA699A607B6807
:101378005B68BB610122FB6902FA03F3DB43BA69CC
:101388001340BB613B685B681B0903F00102FB6902
:1013980002FA03F3BA691343BB617B68BA695A60FE
:1013A8007B68DB68BB61FB695B00032202FA03F31D
:1013B800DB43BA691340BB613B689A68FB695B0011
:1013C80002FA03F3BA691343BB617B68BA69DA604E
:1013D8003B685B6803F08053002B00F0B480002367
:1013E800FB605F4A5E4B5B6C43F4804353645C4B29
:1013F8005B6C03F48043FB60FB685A4AFB699B08FB
:10140800023352F82330BB61FB6903F003039B00EE
:101418000F2202FA03F3DB43BA691340BB617B680E
:10142800514A93422BD07B68504A934225D07B681F
:101438004F4A93421FD07B684E4A934219D07B682B
:101448004D4A934213D07B684C4A93420DD07B6837
:101458004B4A934207D07B684A4A934201D10723FB
:101468000EE008230CE006230AE0052308E0042325
:1014780006E0032304E0022302E0012300E0002346
:10148800FA6902F0030292009340BA691343BB6100
:101498003449FB699B080233BA6941F823203A4B67
:1014A8001B68BB613B69DB43BA691340BB613B689E
:1014B8005B6803F48033002B03D0BA693B6913439C
:1014C800BB61314ABB6913602F4B5B68BB613B69E9
:1014D800DB43BA691340BB613B685B6803F40033C4
:1014E800002B03D0BA693B691343BB61264ABB6929
:1014F8005360254B9B68BB613B69DB43BA6913406A
:10150800BB613B685B6803F48013002B03D0BA69A6
:101518003B691343BB611C4ABB6993601A4BDB6888
:10152800BB613B69DB43BA691340BB613B685B68DD
:1015380003F40013002B03D0BA693B691343BB6162
:10154800114ABB69D360FB690133FB61FB690F2B4F
:101558007FF690AE00BF2437BD465DF8047B704728
:1015680000380240003801400000024000040240F8
:1015780000080240000C0240001002400014024023
:1015880000180240001C0240003C014080B586B0B3
:1015980000AF78607B68002B01D101232DE27B68C6
:1015A8001B6803F00103002B75D0A34B9B6803F065
:1015B8000C03042B0CD0A04B9B6803F00C03082BE6
:1015C80012D19D4B5B6803F48003B3F5800F0BD1F8
:1015D800994B1B6803F40033002B5BD07B685B6876
:1015E800002B57D1012308E27B685B68B3F5803F85
:1015F80006D1914A904B1B6843F4803313601DE079
:101608007B685B68B3F5A02F0CD18B4A8A4B1B68AB
:1016180043F480231360884A874B1B6843F4803364
:1016280013600BE0844A844B1B6823F480331360F7
:10163800814A814B1B6823F4802313607B685B68B5
:10164800002B13D0FEF7AAFF386108E0FEF7A6FFCB
:1016580002463B69D31A642B01D90323CDE1764BAB
:101668001B6803F40033002BF0D014E0FEF796FF5C
:10167800386108E0FEF792FF02463B69D31A642BF3
:1016880001D90323B9E16C4B1B6803F40033002B29
:10169800F0D100E000BF7B681B6803F00203002B59
:1016A80063D0654B9B6803F00C03002B0BD0624B97
:1016B8009B6803F00C03082B1CD15F4B5B6803F499
:1016C8008003002B16D15C4B1B6803F00203002B30
:1016D80005D07B68DB68012B01D001238DE15649D9
:1016E800554B1B6823F0F8027B681B69DB0013432A
:1016F8000B603AE07B68DB68002B20D04F4B01225F
:101708001A60FEF74BFF386108E0FEF747FF024614
:101718003B69D31A022B01D903236EE1464B1B68A0
:1017280003F00203002BF0D04349434B1B6823F01E
:10173800F8027B681B69DB0013430B6015E03F4B25
:1017480000221A60FEF72AFF386108E0FEF726FF3C
:1017580002463B69D31A022B01D903234DE1364BCC
:101768001B6803F00203002BF0D17B681B6803F0B1
:101778000803002B30D07B685B69002B16D0304BF8
:1017880001221A60FEF70AFF386108E0FEF706FF3B
:1017980002463B69D31A022B01D903232DE1264BBC
:1017A8005B6F03F00203002BF0D015E0244B0022FE
:1017B8001A60FEF7F3FE386108E0FEF7EFFE024616
:1017C8003B69D31A022B01D9032316E11A4B5B6F2D
:1017D80003F00203002BF0D17B681B6803F00403BD
:1017E800002B00F0A0800023FB75134B1B6C03F04B
:1017F8008053002B0FD10023FB600F4A0E4B1B6C4C
:1018080043F0805313640C4B1B6C03F08053FB6054
:10181800FB680123FB750B4B1B6803F48073002BDB
:1018280021D1084A074B1B6843F480731360FEF705
:10183800B5FE386111E000BF0038024000004742A1
:10184800800E474200700040FEF7A8FE02463B6942
:10185800D31A022B01D90323CFE06A4B1B6803F488
:101868008073002BF0D07B689B68012B06D1664AF9
:10187800654B1B6F43F0010313671CE07B689B6893
:10188800052B0CD1604A604B1B6F43F004031367B0
:101898005D4A5D4B1B6F43F0010313670BE05A4A27
:1018A800594B1B6F23F001031367574A564B1B6FA5
:1018B80023F0040313677B689B68002B15D0FEF7A1
:1018C8006DFE38610AE0FEF769FE02463B69D31AED
:1018D80041F28832934201D903238EE04A4B1B6FB1
:1018E80003F00203002BEED014E0FEF757FE386138
:1018F8000AE0FEF753FE02463B69D31A41F28832EA
:10190800934201D9032378E03F4B1B6F03F0020396
:10191800002BEED1FB7D012B05D13B4A3A4B1B6CCA
:1019280023F0805313647B689B69002B64D0364B8B
:101938009B6803F00C03082B5CD07B689B69022B27
:1019480041D1324B00221A60FEF728FE386108E0C8
:10195800FEF724FE02463B69D31A022B01D9032362
:101968004BE0294B1B6803F00073002BF0D126498C
:101978007B68DA697B681B6A1A437B685B6A9B0130
:101988001A437B689B6A5B08013B1B041A437B680C
:10199800DB6A1B0613434B601C4B01221A60FEF7DF
:1019A800FDFD386108E0FEF7F9FD02463B69D31AF0
:1019B800022B01D9032320E0134B1B6803F00073AB
:1019C800002BF0D018E0114B00221A60FEF7E6FD5C
:1019D800386108E0FEF7E2FD02463B69D31A022BA4
:1019E80001D9032309E0084B1B6803F00073002B9F
:1019F800F0D101E0012300E0002318461837BD4666
:101A080080BD00BF007000400038024060004742BF
:101A180080B584B000AF786039607B68002B01D155
:101A28000123CAE0674B1B6803F00F023B689A4228
:101A38000CD2644B3A68D2B21A70624B1B6803F03E
:101A48000F023B689A4201D00123B6E07B681B680D
:101A580003F00203002B20D07B681B6803F004030B
:101A6800002B05D0584A584B9B6843F4E0539360C9
:101A78007B681B6803F00803002B05D0524A524BC1
:101A88009B6843F4604393604F494F4B9B6823F036
:101A9800F0027B689B6813438B607B681B6803F0CC
:101AA8000103002B44D07B685B68012B07D1464BB0
:101AB8001B6803F40033002B19D101237DE07B68F8
:101AC8005B68022B03D07B685B68032B07D13E4B16
:101AD8001B6803F00073002B09D101236DE03A4B1A
:101AE8001B6803F00203002B01D1012365E036498E
:101AF800354B9B6823F003027B685B6813438B605C
:101B0800FEF74CFDF8600AE0FEF748FD0246FB6868
:101B1800D31A41F28832934201D903234DE02A4B6C
:101B28009B6803F00C027B685B689B009A42EBD1D0
:101B3800244B1B6803F00F023B689A420CD9214BD7
:101B48003A68D2B21A701F4B1B6803F00F023B6849
:101B58009A4201D0012330E07B681B6803F004033C
:101B6800002B08D01849184B9B6823F4E0527B6877
:101B7800DB6813438B607B681B6803F00803002B4A
:101B880009D01149104B9B6823F460427B681B699C
:101B9800DB0013438B6000F01DF801460A4B9B687D
:101BA8001B0903F00F03094AD35C21FA03F3084A1F
:101BB80013600020FEF7AEFC002318461037BD4620
:101BC80080BD00BF003C0240003802409C2A00084B
:101BD800080000202DE9F04F87B000AF0022FA601E
:101BE80000227A610022BA6000223A61514A926862
:101BF80002F00C02042A07D0082A08D0002A40F074
:101C080090804D4B3B618FE04C4B3B618CE0494AE7
:101C1800526802F03F02FA60464A526802F48002B3
:101C2800002A23D0434B5B689B094FF0000440F225
:101C3800FF114FF0000203EA010304EA02043F4ADD
:101C480002FB04F1002202FB03F20A443B49A3FB16
:101C5800010153181946FB684FF000041A46234641
:101C6800FEF7AEFA03460C467B614CE0314A5268F7
:101C7800920911464FF0000240F2FF154FF000069E
:101C880005EA010506EA0206294632464FEA421BE2
:101C98004BEAD16B4FEA411A51465A46AA46B34617
:101CA80055465E464D1B62EB0606294632469401B0
:101CB80044EA91648B015B1A64EB02044FEAC4099D
:101CC80049EA53794FEAC30843464C4655465E46AF
:101CD800ED1846EB04062B463446A2027A607A6871
:101CE80042EA93527A609B023B6097E818001846D4
:101CF8002146FB684FF000041A462346FEF760FAB7
:101D080003460C467B610B4B5B681B0C03F003031B
:101D180001335B00BB607A69BB68B2FBF3F33B61DC
:101D280002E0054B3B6100BF3B6918461C37BD46C6
:101D3800BDE8F08F003802400024F40040787D01AF
:101D480080B400AF034B1B681846BD465DF8047BA2
:101D5800704700BF0800002080B582B000AF7860EF
:101D68007B68002B01D101231DE07B6893F8393093
:101D7800DBB2002B06D17B68002283F83820786814
:101D880000F0F2FC7B68022283F839207B681A682D
:101D98007B6804331946104600F000F97B6801227D
:101DA80083F83920002318460837BD4680BD80B423
:101DB80083B000AF78607B681B687A681268D26865
:101DC80042F00102DA607B681B687A681268126860
:101DD80042F001021A60002318460C37BD465DF830
:101DE800047B704780B584B000AF78603960002309
:101DF800FB607B6893F83830012B01D10223C8E0DF
:101E08007B68012283F838207B68022283F8392016
:101E18007B681B689B68FB60FB6823F07703FB60AB
:101E2800FB6823F47F43FB607B681B68FA689A6051
:101E38003B681B68402B77D0402B0ED8102B00F046
:101E48008A80102B02D8002B7ED099E0202B00F03E
:101E58008980302B00F08D8092E0702B16D0702B8B
:101E680004D8502B40D0602B4ED089E0B3F5805F6A
:101E780003D0B3F5005F24D082E07B681B687A68E2
:101E88001268926822F007029A6079E07B68186805
:101E98003B6899683B685A683B68DB6800F0AFF9B3
:101EA8007B681B689B68FB60FB6823F07703FB601B
:101EB800FB6843F07703FB607B681B68FA689A60ED
:101EC8005EE07B6818683B6899683B685A683B68BD
:101ED800DB6800F094F97B681B687A68126892687E
:101EE80042F480429A604BE07B6818683B68596806
:101EF8003B68DB681A4600F0FBF87B681B685021DA
:101F0800184600F05CF93BE07B6818683B68596844
:101F18003B68DB681A4600F01EF97B681B68602185
:101F2800184600F04CF92BE07B6818683B68596844
:101F38003B68DB681A4600F0DBF87B681B684021C9
:101F4800184600F03CF91BE07B681B680021184626
:101F580000F035F914E07B681B681021184600F082
:101F68002EF90DE07B681B682021184600F027F940
:101F780006E07B681B683021184600F020F900BF96
:101F88007B68012283F839207B68002283F8382097
:101F9800002318461037BD4680BD000080B485B0C8
:101FA80000AF786039600023FB607B681B68FB60CA
:101FB8007B68444A934213D07B68B3F1804F0FD0BB
:101FC8007B68414A93420BD07B68404A934207D0D2
:101FD8007B683F4A934203D07B683E4A934201D1D3
:101FE800012300E00023002B08D0FB6823F07003D6
:101FF800FB603B685B68FA681343FB607B68314AA7
:1020080093422BD07B68B3F1804F27D07B682E4A50
:10201800934223D07B682D4A93421FD07B682C4A79
:1020280093421BD07B682B4A934217D07B682A4A7D
:10203800934213D07B68294A93420FD07B68284A81
:1020480093420BD07B68274A934207D07B68264A85
:10205800934203D07B68254A934201D1012300E0D3
:102068000023002B08D0FB6823F44073FB603B6817
:10207800DB68FA681343FB607B68FA681A603B68A0
:102088009A687B68DA623B681A687B689A627B6840
:102098000C4A934203D07B680E4A934201D1012334
:1020A80000E00023002B03D03B681A697B681A63A1
:1020B8007B6801225A6100BF1437BD465DF8047B76
:1020C800704700BF000001400004004000080040C5
:1020D800000C004000040140004001400044014061
:1020E8000048014000180040001C0040002000404B
:1020F80080B487B000AFF860B9607A6000237B6174
:1021080000233B61FB681B6A3B61FB681B6A23F089
:102118000102FB681A62FB689B697B617B6923F09B
:10212800F0037B617B681B017A6913437B613B6920
:1021380023F00A033B613A69BB6813433B61FB68C0
:102148007A699A61FB683A691A6200BF1C37BD4612
:102158005DF8047B704780B487B000AFF860B96061
:102168007A6000237B6100233B61FB681B6A23F0D4
:102178001002FB681A62FB689B697B61FB681B6A3B
:102188003B617B6923F470437B617B681B037A693D
:1021980013437B613B6923F0A0033B61BB681B01D0
:1021A8003A6913433B61FB687A699A61FB683A694B
:1021B8001A6200BF1C37BD465DF8047B704780B4C7
:1021C80085B000AF78600B467B800023FB607B689E
:1021D8009B68FB60FB6823F07003FB607B8843F01F
:1021E80007039BB21A46FB681343FB607B68FA68D7
:1021F8009A6000BF1437BD465DF8047B704780B411
:1022080087B000AFF860B9607A603B6000237B61FB
:10221800FB689B687B617B6923F47F437B613B6838
:102228001A027B681A43BB6813437A6913437B61BC
:10223800FB687A699A6000BF1C37BD465DF8047B6D
:10224800704780B483B000AF786039607B6893F8DA
:102258003830012B01D1022332E07B68012283F858
:1022680038207B68022283F839207B681B687A68EB
:102278001268526822F070025A607B681B687A689C
:10228800126851683A6812680A435A607B681B688A
:102298007A681268926822F080029A607B681B68EC
:1022A8007A68126891683A6852680A439A607B684B
:1022B800012283F839207B68002283F83820002324
:1022C80018460C37BD465DF8047B704780B500AFF3
:1022D8000F4B104A1A600E4B4FF040425A600C4B9D
:1022E8000D4A9A600A4B0D4ADA60FEF7F1F800F0E1
:1022F8001BF800F055F900F08DF800F0DBF800F05D
:1023080005F90748FFF753FD0648FEF797F9FEE77A
:10231800C8000020EF91233F2F4D92BFBB5AD33EF8
:102328002C0000206800002080B594B000AF002386
:10233800BB60344A334B1B6C43F080531364314BFE
:102348001B6C03F08053BB60BB6800237B602E4A84
:102358002D4B1B6843F4804313602B4B1B6803F41D
:1023680080437B607B6802233B620123FB6210236E
:102378003B630223BB630023FB6308233B64A8235E
:102388007B640223BB640423FB6407F12003184623
:10239800FFF7FCF80346002B03D0A0211B4800F0F0
:1023A80027F90F23FB6002233B6100237B614FF475
:1023B800A053BB614FF48053FB6107F10C03052167
:1023C8001846FFF725FB0346002B03D0AE210F4824
:1023D80000F00EF9FFF7B4FC02460D4BA3FB0223F5
:1023E8009B091846FEF76DFE0420FEF777FE0022D3
:1023F80000214FF0FF30FEF73AFE00BF5037BD46D0
:1024080080BD00BF00380240007000408C2A0008E0
:10241800D34D621080B584B000AF234B234A1A60B5
:10242800214B4FF480325A601F4B00229A601E4B9A
:1024380001221A611C4B00229A611B4B00221A626E
:10244800194B4FF08052DA62174B4FF000629A62D4
:10245800154B0022DA60144B0122DA61124B00227C
:102468001A63114B01225A610F48FEF7A3F803467D
:10247800002B03D0D3210E4800F0BAF800233B60AC
:1024880001237B600423BB603B4619460648FEF7E0
:10249800F1FA0346002B03D0DD21054800F0A8F827
:1024A80000BF1037BD4680BD6800002000200140F5
:1024B8008C2A000880B582B000AF114B114A1A600F
:1024C8000F48FEF734FE0346002B03D0ED210E48DB
:1024D80000F08EF800233B6000237B603B4600221F
:1024E80019460748FEF745FE0346002B03D0F621A0
:1024F800054800F07DF800BF0837BD4680BD00BF25
:10250800B0000020007400408C2A000880B586B016
:1025180000AF204B204A1A601E4B53225A601D4BB5
:1025280000229A601B4B4FF47A72DA60194B002232
:102538001A611848FFF710FC0346002B04D040F23C
:102548000911164800F054F84FF48053BB6007F1A6
:10255800080319460F48FFF745FC0346002B04D033
:1025680040F20F110D4800F043F820233B60002390
:102578007B603B4619460748FFF763FE0346002B7E
:1025880004D04FF48B71054800F032F800BF1837BB
:10259800BD4680BD2C000020000400408C2A0008A5
:1025A80080B483B000AF00237B60104A0F4B1B6BD5
:1025B80043F0800313630D4B1B6B03F080037B60B8
:1025C8007B6800233B60094A084B1B6B43F00103FF
:1025D8001363064B1B6B03F001033B603B6800BFB2
:1025E8000C37BD465DF8047B704700BF00380240D9
:1025F80080B483B000AF78603960FEE780B582B000
:1026080000AF00237B60254A244B5B6C43F4804376
:102618005364224B5B6C03F480437B607B6800232C
:102628003B601E4A1D4B1B6C43F0805313641B4BCD
:102638001B6C03F080533B603B680320FEF70CFDE6
:10264800002200216FF00B00FEF711FD002200218F
:102658006FF00A00FEF70BFD002200216FF0090061
:10266800FEF705FD002200216FF00400FEF7FFFCD5
:10267800002200216FF00300FEF7F9FC0022002180
:102688006FF00100FEF7F3FC002200214FF0FF304D
:10269800FEF7EDFC00BF0837BD4680BD003802409C
:1026A80080B588B000AF78607B681B68144A934295
:1026B80021D10023BB60134A124B5B6C43F4807337
:1026C8005364104B5B6C03F48073BB60BB680123DD
:1026D800FB6003233B6100237B6107F10C03194670
:1026E8000948FEF7B9FD002200211220FEF7BFFCC1
:1026F8001220FEF7D8FC00BF2037BD4680BD00BFC2
:1027080000200140003802400000024080B588B037
:1027180000AF78607B681B68104A934219D1002388
:10272800BB600F4A0E4B1B6C43F0005313640C4BF9
:102738001B6C03F00053BB60BB681023FB600323D2
:102748003B6100237B6107F10C0319460548FEF73E
:1027580083FD00BF2037BD4680BD00BF0074004028
:10276800003802400000024080B485B000AF7860B5
:102778007B681B680B4A93420DD10023FB600A4A11
:10278800094B1B6C43F002031364074B1B6C03F0EB
:102798000203FB60FB6800BF1437BD465DF8047B8D
:1027A800704700BF000400400038024080B400AF0A
:1027B80000BFBD465DF8047B704780B400AFFEE7FC
:1027C80080B400AFFEE780B400AFFEE780B400AF8E
:1027D800FEE780B400AF00BFBD465DF8047B7047DC
:1027E80080B400AF00BFBD465DF8047B704780B47D
:1027F80000AF00BFBD465DF8047B704780B500AFF1
:10280800FDF7B8FEFEF786FC00BF80BD80B582B03C
:1028180000AF2148FEF703F907EE900AF8EE677A51
:10282800B0EE670A1D4800F07BF81C4800F0C0F8BD
:10283800B0EE407ADFED1A7A67EE277AFDEEE77A96
:10284800C7ED017ABB881AB2164B1A80134800F0FC
:10285800AFF8B0EE407ADFED147A67EE277A9FED95
:10286800137A77EE877AFCEEE77A17EE903A002231
:1028780000210F48FEF7CAFC0748FEF7D0F80346C8
:10288800002210210A48FEF7C1FC0348FDF786FF25
:1028980000BF0837BD4680BD68000020C800002082
:1028A8000000C842C400002000007A44000000452F
:1028B800B000002080B400AF164A164BD3F8883019
:1028C80043F47003C2F88830134A134B1B6843F073
:1028D80001031360104B00229A600F4A0E4B1B68CD
:1028E80023F0847323F4803313600B4B0B4A5A6034
:1028F800094A094B1B6823F480231360064B002206
:10290800DA60044B4FF000629A6000BFBD465DF884
:10291800047B704700ED00E00038024010300024CE
:1029280080B483B000AF786087ED000A7B6893EDD0
:10293800077A7B68D3ED007A27EE277A7B68D3ED98
:10294800056A7B68D3ED027A66EEA77A37EE677A76
:102958007B68D3ED066A7B68D3ED037A66EEA77AC7
:1029680077EE677A7B68C3ED047A7B6893ED067A25
:102978007B68D3ED056A7B68D3ED017A66EEA77AAA
:1029880037EE277A7B68D3ED047A77EE277A7B686F
:10299800C3ED087A7B685A697B689A617B681A6913
:1029A8007B685A6100BF0C37BD465DF8047B7047F1
:1029B80080B483B000AF78607B681B6A07EE903AFA
:1029C800B0EE670A0C37BD465DF8047B704700001F
:1029D800DFF834D0002103E00C4B5B58435004313E
:1029E8000B480C4B42189A42F6D30B4A02E00023DC
:1029F80042F8043B094B9A42F9D3FFF75BFF00F01A
:102A080011F8FFF763FC704700000220BC2A000899
:102A1800000000200C0000200C000020EC0000202A
:102A2800FEE7000070B50D4E0D4CA41BA410002548
:102A3800A54209D10B4E0C4C00F018F8A41BA410A9
:102A48000025A54205D170BD56F8253098470135B7
:102A5800EEE756F8253098470135F2E7B42A000822
:102A6800B42A0008B42A0008B82A0008F8B500BF3C
:102A7800F8BC08BC9E467047F8B500BFF8BC08BC57
:042A88009E467047AF
:102A8C002E2E5C5372635C6D61696E2E63000000C8
:102A9C000000000000000000010203040607080902
:082AAC004CD7FF7F0100000080
:042AB400AD01000868
:042AB8008901000888
:0C2ABC0010000000010000000024F400E5
:04000005080029D9ED
:00000001FF
